{
  "contractName": "CredentialIssuer",
  "abi": [
    {
      "anonymous": false,
      "inputs": [
        {
          "indexed": true,
          "internalType": "address",
          "name": "user",
          "type": "address"
        },
        {
          "indexed": false,
          "internalType": "string",
          "name": "courseName",
          "type": "string"
        },
        {
          "indexed": false,
          "internalType": "string",
          "name": "ipfsHash",
          "type": "string"
        }
      ],
      "name": "CourseCompleted",
      "type": "event"
    },
    {
      "anonymous": false,
      "inputs": [
        {
          "indexed": true,
          "internalType": "address",
          "name": "user",
          "type": "address"
        },
        {
          "indexed": false,
          "internalType": "string",
          "name": "courseName",
          "type": "string"
        },
        {
          "indexed": false,
          "internalType": "uint256",
          "name": "courseFee",
          "type": "uint256"
        }
      ],
      "name": "CoursePurchased",
      "type": "event"
    },
    {
      "anonymous": false,
      "inputs": [
        {
          "indexed": true,
          "internalType": "address",
          "name": "user",
          "type": "address"
        },
        {
          "indexed": false,
          "internalType": "string",
          "name": "name",
          "type": "string"
        },
        {
          "indexed": false,
          "internalType": "string",
          "name": "userId",
          "type": "string"
        },
        {
          "indexed": false,
          "internalType": "string",
          "name": "credentialHash",
          "type": "string"
        }
      ],
      "name": "CredentialIssued",
      "type": "event"
    },
    {
      "anonymous": false,
      "inputs": [
        {
          "indexed": true,
          "internalType": "address",
          "name": "user",
          "type": "address"
        },
        {
          "indexed": false,
          "internalType": "string",
          "name": "message",
          "type": "string"
        }
      ],
      "name": "DebugLog",
      "type": "event"
    },
    {
      "anonymous": false,
      "inputs": [
        {
          "indexed": true,
          "internalType": "address",
          "name": "user",
          "type": "address"
        },
        {
          "indexed": false,
          "internalType": "uint256",
          "name": "refundAmount",
          "type": "uint256"
        }
      ],
      "name": "EtherRefunded",
      "type": "event"
    },
    {
      "inputs": [
        {
          "internalType": "string",
          "name": "",
          "type": "string"
        }
      ],
      "name": "assignmentExists",
      "outputs": [
        {
          "internalType": "bool",
          "name": "",
          "type": "bool"
        }
      ],
      "stateMutability": "view",
      "type": "function",
      "constant": true
    },
    {
      "inputs": [
        {
          "internalType": "address",
          "name": "",
          "type": "address"
        }
      ],
      "name": "credentials",
      "outputs": [
        {
          "internalType": "string",
          "name": "name",
          "type": "string"
        },
        {
          "internalType": "string",
          "name": "userId",
          "type": "string"
        },
        {
          "internalType": "string",
          "name": "credentialHash",
          "type": "string"
        },
        {
          "internalType": "bool",
          "name": "isValid",
          "type": "bool"
        }
      ],
      "stateMutability": "view",
      "type": "function",
      "constant": true
    },
    {
      "inputs": [
        {
          "internalType": "address",
          "name": "",
          "type": "address"
        },
        {
          "internalType": "string",
          "name": "",
          "type": "string"
        }
      ],
      "name": "userCourses",
      "outputs": [
        {
          "internalType": "string",
          "name": "courseName",
          "type": "string"
        },
        {
          "internalType": "uint256",
          "name": "courseFee",
          "type": "uint256"
        },
        {
          "internalType": "bool",
          "name": "isPurchased",
          "type": "bool"
        },
        {
          "internalType": "bool",
          "name": "isCompleted",
          "type": "bool"
        },
        {
          "internalType": "string",
          "name": "assignmentHash",
          "type": "string"
        }
      ],
      "stateMutability": "view",
      "type": "function",
      "constant": true
    },
    {
      "inputs": [
        {
          "internalType": "string",
          "name": "_name",
          "type": "string"
        },
        {
          "internalType": "string",
          "name": "_userId",
          "type": "string"
        },
        {
          "internalType": "string",
          "name": "_credentialHash",
          "type": "string"
        }
      ],
      "name": "issueCredential",
      "outputs": [],
      "stateMutability": "nonpayable",
      "type": "function"
    },
    {
      "inputs": [
        {
          "internalType": "address",
          "name": "_user",
          "type": "address"
        }
      ],
      "name": "validateCredential",
      "outputs": [
        {
          "internalType": "bool",
          "name": "",
          "type": "bool"
        }
      ],
      "stateMutability": "view",
      "type": "function",
      "constant": true
    },
    {
      "inputs": [
        {
          "internalType": "address",
          "name": "_user",
          "type": "address"
        }
      ],
      "name": "getCredential",
      "outputs": [
        {
          "internalType": "string",
          "name": "",
          "type": "string"
        },
        {
          "internalType": "string",
          "name": "",
          "type": "string"
        },
        {
          "internalType": "string",
          "name": "",
          "type": "string"
        },
        {
          "internalType": "bool",
          "name": "",
          "type": "bool"
        }
      ],
      "stateMutability": "view",
      "type": "function",
      "constant": true
    },
    {
      "inputs": [
        {
          "internalType": "string",
          "name": "courseName",
          "type": "string"
        },
        {
          "internalType": "uint256",
          "name": "courseFee",
          "type": "uint256"
        }
      ],
      "name": "purchaseCourse",
      "outputs": [],
      "stateMutability": "payable",
      "type": "function",
      "payable": true
    },
    {
      "inputs": [
        {
          "internalType": "string",
          "name": "courseName",
          "type": "string"
        },
        {
          "internalType": "string",
          "name": "ipfsHash",
          "type": "string"
        }
      ],
      "name": "completeCourse",
      "outputs": [],
      "stateMutability": "nonpayable",
      "type": "function"
    },
    {
      "inputs": [],
      "name": "fundContract",
      "outputs": [],
      "stateMutability": "payable",
      "type": "function",
      "payable": true
    },
    {
      "inputs": [],
      "name": "getContractBalance",
      "outputs": [
        {
          "internalType": "uint256",
          "name": "",
          "type": "uint256"
        }
      ],
      "stateMutability": "view",
      "type": "function",
      "constant": true
    }
  ],
  "bytecode": "0x608060405234801561000f575f80fd5b50611e2d8061001d5f395ff3fe608060405260043610610090575f3560e01c80636f9fb98a116100585780636f9fb98a146101b35780638b1afa80146101dd578063bd097e2114610205578063ccdad14b1461020f578063ed6aba2c1461024e57610090565b80632a1a8736146100945780633b2fd1b1146100d45780633cd6a3f3146101105780634f72cbfb146101385780636016dd4a14610174575b5f80fd5b34801561009f575f80fd5b506100ba60048036038101906100b591906111e2565b61026a565b6040516100cb9594939291906112e8565b60405180910390f35b3480156100df575f80fd5b506100fa60048036038101906100f59190611347565b6103e4565b6040516101079190611372565b60405180910390f35b34801561011b575f80fd5b506101366004803603810190610131919061138b565b610438565b005b348015610143575f80fd5b5061015e60048036038101906101599190611401565b610896565b60405161016b9190611372565b60405180910390f35b34801561017f575f80fd5b5061019a60048036038101906101959190611347565b6108cb565b6040516101aa9493929190611448565b60405180910390f35b3480156101be575f80fd5b506101c7610a94565b6040516101d491906114a0565b60405180910390f35b3480156101e8575f80fd5b5061020360048036038101906101fe91906114b9565b610a9b565b005b61020d610bb4565b005b34801561021a575f80fd5b5061023560048036038101906102309190611347565b610bb6565b6040516102459493929190611448565b60405180910390f35b61026860048036038101906102639190611587565b610df2565b005b6001602052815f5260405f20818051602081018201805184825260208301602085012081835280955050505050505f9150915050805f0180546102ac9061160e565b80601f01602080910402602001604051908101604052809291908181526020018280546102d89061160e565b80156103235780601f106102fa57610100808354040283529160200191610323565b820191905f5260205f20905b81548152906001019060200180831161030657829003601f168201915b505050505090806001015490806002015f9054906101000a900460ff16908060020160019054906101000a900460ff16908060030180546103639061160e565b80601f016020809104026020016040519081016040528092919081815260200182805461038f9061160e565b80156103da5780601f106103b1576101008083540402835291602001916103da565b820191905f5260205f20905b8154815290600101906020018083116103bd57829003601f168201915b5050505050905085565b5f805f8373ffffffffffffffffffffffffffffffffffffffff1673ffffffffffffffffffffffffffffffffffffffff1681526020019081526020015f206003015f9054906101000a900460ff169050919050565b60015f3373ffffffffffffffffffffffffffffffffffffffff1673ffffffffffffffffffffffffffffffffffffffff1681526020019081526020015f20826040516104839190611678565b90815260200160405180910390206002015f9054906101000a900460ff166104e0576040517f08c379a00000000000000000000000000000000000000000000000000000000081526004016104d7906116fe565b60405180910390fd5b60015f3373ffffffffffffffffffffffffffffffffffffffff1673ffffffffffffffffffffffffffffffffffffffff1681526020019081526020015f208260405161052b9190611678565b908152602001604051809103902060020160019054906101000a900460ff161561058a576040517f08c379a00000000000000000000000000000000000000000000000000000000081526004016105819061178c565b60405180910390fd5b3373ffffffffffffffffffffffffffffffffffffffff167fcce9452be12b72a2a25a2427888ab6bfb2d321f57920790ec453cb42e994a6116040516105ce9061181a565b60405180910390a28060015f3373ffffffffffffffffffffffffffffffffffffffff1673ffffffffffffffffffffffffffffffffffffffff1681526020019081526020015f20836040516106229190611678565b9081526020016040518091039020600301908161063f91906119d5565b506001805f3373ffffffffffffffffffffffffffffffffffffffff1673ffffffffffffffffffffffffffffffffffffffff1681526020019081526020015f208360405161068c9190611678565b908152602001604051809103902060020160016101000a81548160ff0219169083151502179055503373ffffffffffffffffffffffffffffffffffffffff167ff41525b3d8aca18cd2a9d287f9d9e59699f85fc73e555f969f44d36ee0a3372183836040516106fc929190611aa4565b60405180910390a25f600260015f3373ffffffffffffffffffffffffffffffffffffffff1673ffffffffffffffffffffffffffffffffffffffff1681526020019081526020015f20846040516107529190611678565b90815260200160405180910390206001015461076e9190611b06565b9050804710156107b3576040517f08c379a00000000000000000000000000000000000000000000000000000000081526004016107aa90611bb7565b60405180910390fd5b3373ffffffffffffffffffffffffffffffffffffffff167fcce9452be12b72a2a25a2427888ab6bfb2d321f57920790ec453cb42e994a6116040516107f790611c45565b60405180910390a23373ffffffffffffffffffffffffffffffffffffffff166108fc8290811502906040515f60405180830381858888f19350505050158015610842573d5f803e3d5ffd5b503373ffffffffffffffffffffffffffffffffffffffff167fe0cada2e40ecdab81ff95d6947b1cd2f7ef9d1cb94b6a3cf2480757e3f049aac8260405161088991906114a0565b60405180910390a2505050565b6002818051602081018201805184825260208301602085012081835280955050505050505f915054906101000a900460ff1681565b5f602052805f5260405f205f91509050805f0180546108e99061160e565b80601f01602080910402602001604051908101604052809291908181526020018280546109159061160e565b80156109605780601f1061093757610100808354040283529160200191610960565b820191905f5260205f20905b81548152906001019060200180831161094357829003601f168201915b5050505050908060010180546109759061160e565b80601f01602080910402602001604051908101604052809291908181526020018280546109a19061160e565b80156109ec5780601f106109c3576101008083540402835291602001916109ec565b820191905f5260205f20905b8154815290600101906020018083116109cf57829003601f168201915b505050505090806002018054610a019061160e565b80601f0160208091040260200160405190810160405280929190818152602001828054610a2d9061160e565b8015610a785780601f10610a4f57610100808354040283529160200191610a78565b820191905f5260205f20905b815481529060010190602001808311610a5b57829003601f168201915b505050505090806003015f9054906101000a900460ff16905084565b5f47905090565b6040518060800160405280848152602001838152602001828152602001600115158152505f803373ffffffffffffffffffffffffffffffffffffffff1673ffffffffffffffffffffffffffffffffffffffff1681526020019081526020015f205f820151815f019081610b0e91906119d5565b506020820151816001019081610b2491906119d5565b506040820151816002019081610b3a91906119d5565b506060820151816003015f6101000a81548160ff0219169083151502179055509050503373ffffffffffffffffffffffffffffffffffffffff167fee1de36c11a172cb074ad178ec6fd447ca52619021aea8eca02ec83f77de10fd848484604051610ba793929190611c63565b60405180910390a2505050565b565b60608060605f805f808773ffffffffffffffffffffffffffffffffffffffff1673ffffffffffffffffffffffffffffffffffffffff1681526020019081526020015f206040518060800160405290815f82018054610c139061160e565b80601f0160208091040260200160405190810160405280929190818152602001828054610c3f9061160e565b8015610c8a5780601f10610c6157610100808354040283529160200191610c8a565b820191905f5260205f20905b815481529060010190602001808311610c6d57829003601f168201915b50505050508152602001600182018054610ca39061160e565b80601f0160208091040260200160405190810160405280929190818152602001828054610ccf9061160e565b8015610d1a5780601f10610cf157610100808354040283529160200191610d1a565b820191905f5260205f20905b815481529060010190602001808311610cfd57829003601f168201915b50505050508152602001600282018054610d339061160e565b80601f0160208091040260200160405190810160405280929190818152602001828054610d5f9061160e565b8015610daa5780601f10610d8157610100808354040283529160200191610daa565b820191905f5260205f20905b815481529060010190602001808311610d8d57829003601f168201915b50505050508152602001600382015f9054906101000a900460ff1615151515815250509050805f01518160200151826040015183606001519450945094509450509193509193565b80341015610e35576040517f08c379a0000000000000000000000000000000000000000000000000000000008152600401610e2c90611d1d565b60405180910390fd5b60015f3373ffffffffffffffffffffffffffffffffffffffff1673ffffffffffffffffffffffffffffffffffffffff1681526020019081526020015f2082604051610e809190611678565b90815260200160405180910390206002015f9054906101000a900460ff1615610ede576040517f08c379a0000000000000000000000000000000000000000000000000000000008152600401610ed590611dab565b60405180910390fd5b6040518060a001604052808381526020018281526020016001151581526020015f1515815260200160405180602001604052805f81525081525060015f3373ffffffffffffffffffffffffffffffffffffffff1673ffffffffffffffffffffffffffffffffffffffff1681526020019081526020015f2083604051610f639190611678565b90815260200160405180910390205f820151815f019081610f8491906119d5565b50602082015181600101556040820151816002015f6101000a81548160ff02191690831515021790555060608201518160020160016101000a81548160ff0219169083151502179055506080820151816003019081610fe391906119d5565b509050503373ffffffffffffffffffffffffffffffffffffffff167fdbe39f9488216e1d6a1a40f39c1f28011c947fc858a0bdf1bf4180cd81952768838360405161102f929190611dc9565b60405180910390a25050565b5f604051905090565b5f80fd5b5f80fd5b5f73ffffffffffffffffffffffffffffffffffffffff82169050919050565b5f6110758261104c565b9050919050565b6110858161106b565b811461108f575f80fd5b50565b5f813590506110a08161107c565b92915050565b5f80fd5b5f80fd5b5f601f19601f8301169050919050565b7f4e487b71000000000000000000000000000000000000000000000000000000005f52604160045260245ffd5b6110f4826110ae565b810181811067ffffffffffffffff82111715611113576111126110be565b5b80604052505050565b5f61112561103b565b905061113182826110eb565b919050565b5f67ffffffffffffffff8211156111505761114f6110be565b5b611159826110ae565b9050602081019050919050565b828183375f83830152505050565b5f61118661118184611136565b61111c565b9050828152602081018484840111156111a2576111a16110aa565b5b6111ad848285611166565b509392505050565b5f82601f8301126111c9576111c86110a6565b5b81356111d9848260208601611174565b91505092915050565b5f80604083850312156111f8576111f7611044565b5b5f61120585828601611092565b925050602083013567ffffffffffffffff81111561122657611225611048565b5b611232858286016111b5565b9150509250929050565b5f81519050919050565b5f82825260208201905092915050565b5f5b83811015611273578082015181840152602081019050611258565b5f8484015250505050565b5f6112888261123c565b6112928185611246565b93506112a2818560208601611256565b6112ab816110ae565b840191505092915050565b5f819050919050565b6112c8816112b6565b82525050565b5f8115159050919050565b6112e2816112ce565b82525050565b5f60a0820190508181035f830152611300818861127e565b905061130f60208301876112bf565b61131c60408301866112d9565b61132960608301856112d9565b818103608083015261133b818461127e565b90509695505050505050565b5f6020828403121561135c5761135b611044565b5b5f61136984828501611092565b91505092915050565b5f6020820190506113855f8301846112d9565b92915050565b5f80604083850312156113a1576113a0611044565b5b5f83013567ffffffffffffffff8111156113be576113bd611048565b5b6113ca858286016111b5565b925050602083013567ffffffffffffffff8111156113eb576113ea611048565b5b6113f7858286016111b5565b9150509250929050565b5f6020828403121561141657611415611044565b5b5f82013567ffffffffffffffff81111561143357611432611048565b5b61143f848285016111b5565b91505092915050565b5f6080820190508181035f830152611460818761127e565b90508181036020830152611474818661127e565b90508181036040830152611488818561127e565b905061149760608301846112d9565b95945050505050565b5f6020820190506114b35f8301846112bf565b92915050565b5f805f606084860312156114d0576114cf611044565b5b5f84013567ffffffffffffffff8111156114ed576114ec611048565b5b6114f9868287016111b5565b935050602084013567ffffffffffffffff81111561151a57611519611048565b5b611526868287016111b5565b925050604084013567ffffffffffffffff81111561154757611546611048565b5b611553868287016111b5565b9150509250925092565b611566816112b6565b8114611570575f80fd5b50565b5f813590506115818161155d565b92915050565b5f806040838503121561159d5761159c611044565b5b5f83013567ffffffffffffffff8111156115ba576115b9611048565b5b6115c6858286016111b5565b92505060206115d785828601611573565b9150509250929050565b7f4e487b71000000000000000000000000000000000000000000000000000000005f52602260045260245ffd5b5f600282049050600182168061162557607f821691505b602082108103611638576116376115e1565b5b50919050565b5f81905092915050565b5f6116528261123c565b61165c818561163e565b935061166c818560208601611256565b80840191505092915050565b5f6116838284611648565b915081905092915050565b7f596f7520686176656e277420707572636861736564207468697320636f7572735f8201527f652e000000000000000000000000000000000000000000000000000000000000602082015250565b5f6116e8602283611246565b91506116f38261168e565b604082019050919050565b5f6020820190508181035f830152611715816116dc565b9050919050565b7f596f75206861766520616c726561647920636f6d706c657465642074686973205f8201527f636f757273652e00000000000000000000000000000000000000000000000000602082015250565b5f611776602783611246565b91506117818261171c565b604082019050919050565b5f6020820190508181035f8301526117a38161176a565b9050919050565b7f50617373656420707572636861736520616e6420636f6d706c6574696f6e20635f8201527f6865636b73000000000000000000000000000000000000000000000000000000602082015250565b5f611804602583611246565b915061180f826117aa565b604082019050919050565b5f6020820190508181035f830152611831816117f8565b9050919050565b5f819050815f5260205f209050919050565b5f6020601f8301049050919050565b5f82821b905092915050565b5f600883026118947fffffffffffffffffffffffffffffffffffffffffffffffffffffffffffffffff82611859565b61189e8683611859565b95508019841693508086168417925050509392505050565b5f819050919050565b5f6118d96118d46118cf846112b6565b6118b6565b6112b6565b9050919050565b5f819050919050565b6118f2836118bf565b6119066118fe826118e0565b848454611865565b825550505050565b5f90565b61191a61190e565b6119258184846118e9565b505050565b5b818110156119485761193d5f82611912565b60018101905061192b565b5050565b601f82111561198d5761195e81611838565b6119678461184a565b81016020851015611976578190505b61198a6119828561184a565b83018261192a565b50505b505050565b5f82821c905092915050565b5f6119ad5f1984600802611992565b1980831691505092915050565b5f6119c5838361199e565b9150826002028217905092915050565b6119de8261123c565b67ffffffffffffffff8111156119f7576119f66110be565b5b611a01825461160e565b611a0c82828561194c565b5f60209050601f831160018114611a3d575f8415611a2b578287015190505b611a3585826119ba565b865550611a9c565b601f198416611a4b86611838565b5f5b82811015611a7257848901518255600182019150602085019450602081019050611a4d565b86831015611a8f5784890151611a8b601f89168261199e565b8355505b6001600288020188555050505b505050505050565b5f6040820190508181035f830152611abc818561127e565b90508181036020830152611ad0818461127e565b90509392505050565b7f4e487b71000000000000000000000000000000000000000000000000000000005f52601160045260245ffd5b5f611b10826112b6565b9150611b1b836112b6565b9250828202611b29816112b6565b91508282048414831517611b4057611b3f611ad9565b5b5092915050565b7f436f6e74726163742068617320696e73756666696369656e742066756e6473205f8201527f746f20697373756520726566756e642e00000000000000000000000000000000602082015250565b5f611ba1603083611246565b9150611bac82611b47565b604082019050919050565b5f6020820190508181035f830152611bce81611b95565b9050919050565b7f50617373656420726566756e6420636865636b2c207472616e7366657272696e5f8201527f6720726566756e64000000000000000000000000000000000000000000000000602082015250565b5f611c2f602883611246565b9150611c3a82611bd5565b604082019050919050565b5f6020820190508181035f830152611c5c81611c23565b9050919050565b5f6060820190508181035f830152611c7b818661127e565b90508181036020830152611c8f818561127e565b90508181036040830152611ca3818461127e565b9050949350505050565b7f496e73756666696369656e7420457468657220746f20707572636861736520745f8201527f686520636f757273652e00000000000000000000000000000000000000000000602082015250565b5f611d07602a83611246565b9150611d1282611cad565b604082019050919050565b5f6020820190508181035f830152611d3481611cfb565b9050919050565b7f596f75206861766520616c7265616479207075726368617365642074686973205f8201527f636f757273652e00000000000000000000000000000000000000000000000000602082015250565b5f611d95602783611246565b9150611da082611d3b565b604082019050919050565b5f6020820190508181035f830152611dc281611d89565b9050919050565b5f6040820190508181035f830152611de1818561127e565b9050611df060208301846112bf565b939250505056fea2646970667358221220efd55539323f6e8614660372a854daba620c699e552a30ce7a2fa6ba5fd4bfa264736f6c63430008150033",
  "immutableReferences": {},
  "source": "// SPDX-License-Identifier: MIT\r\n    pragma solidity ^0.8.0;\r\n    contract CredentialIssuer {\r\n        struct Credential {\r\n        string name;\r\n        string userId;\r\n        string credentialHash; // IPFS hash for credential storage\r\n        bool isValid;\r\n    }\r\n    struct Course {\r\n        string courseName;\r\n        uint courseFee; // Fee in wei (Ether)\r\n        bool isPurchased;\r\n        bool isCompleted;\r\n        string assignmentHash; // IPFS hash for the assignment\r\n    }\r\n    mapping(address => Credential) public credentials; // Mapping for issued credentials\r\n    mapping(address => mapping(string => Course)) public userCourses; // Track course data for each user by course name\r\n    mapping(string => bool) public assignmentExists; // To check if the assignment already exists (plagiarism check)\r\n    event CredentialIssued(address indexed user, string name, string userId, string credentialHash);\r\n    event CoursePurchased(address indexed user, string courseName, uint courseFee);\r\n    event CourseCompleted(address indexed user, string courseName, string ipfsHash);\r\n    event EtherRefunded(address indexed user, uint refundAmount);\r\n    event DebugLog(address indexed user, string message);\r\n\r\n    // Issue a credential for a user and store IPFS hash\r\n    function issueCredential(string memory _name, string memory _userId, string memory _credentialHash) public {\r\n    credentials[msg.sender] = Credential({\r\n    name: _name,\r\n    userId: _userId,\r\n    credentialHash: _credentialHash,\r\n    isValid: true\r\n    });\r\n    emit CredentialIssued(msg.sender, _name, _userId, _credentialHash);\r\n    }\r\n    // Validate if a credential exists and is valid\r\n    function validateCredential(address _user) public view returns (bool) {\r\n    return credentials[_user].isValid;\r\n    }\r\n    // Get credential information including the IPFS hash\r\n    function getCredential(address _user) public view returns (string memory, string memory, string memory, bool) {\r\n    Credential memory cred = credentials[_user];\r\n    return (cred.name, cred.userId, cred.credentialHash, cred.isValid);\r\n    }\r\n    // Purchase a course\r\n    function purchaseCourse(string memory courseName, uint courseFee) public payable {\r\n    require(msg.value >= courseFee, \"Insufficient Ether to purchase the course.\");\r\n    require(!userCourses[msg.sender][courseName].isPurchased, \"You have already purchased this course.\");\r\n    // Store course data for the user\r\n    userCourses[msg.sender][courseName] = Course({\r\n    courseName: courseName,\r\n    courseFee: courseFee,\r\n    isPurchased: true,\r\n    isCompleted: false,\r\n    assignmentHash: \"\"\r\n    });\r\n    emit CoursePurchased(msg.sender, courseName, courseFee);\r\n    }\r\n\r\n    // Submit an assignment and complete the course\r\n    function completeCourse(string memory courseName, string memory ipfsHash) public {\r\n        require(userCourses[msg.sender][courseName].isPurchased, \"You haven't purchased this course.\");\r\n        require(!userCourses[msg.sender][courseName].isCompleted, \"You have already completed this course.\");\r\n\r\n        emit DebugLog(msg.sender, \"Passed purchase and completion checks\");\r\n\r\n        // Store assignment hash and mark the course as completed\r\n        userCourses[msg.sender][courseName].assignmentHash = ipfsHash;\r\n        userCourses[msg.sender][courseName].isCompleted = true;\r\n        emit CourseCompleted(msg.sender, courseName, ipfsHash);\r\n\r\n        // Refund double the course fee\r\n        uint refundAmount = userCourses[msg.sender][courseName].courseFee * 2;\r\n        require(address(this).balance >= refundAmount, \"Contract has insufficient funds to issue refund.\");\r\n        \r\n        emit DebugLog(msg.sender, \"Passed refund check, transferring refund\");\r\n\r\n        // Transfer the refund to the user\r\n        payable(msg.sender).transfer(refundAmount);\r\n        emit EtherRefunded(msg.sender, refundAmount);\r\n    }\r\n\r\n\r\n    // Function to fund the contract with Ether (for refund payouts)\r\n    function fundContract() public payable {}\r\n    // Function to check the contract balance\r\n    function getContractBalance() public view returns (uint) {\r\n    return address(this).balance;\r\n    }\r\n}",
  "sourcePath": "D:\\Programming\\projects\\decentralizedEducationPlatform\\contracts\\CredentialIssuer.sol",
  "compiler": {
    "name": "solc",
    "version": "0.8.21+commit.d9974bed.Emscripten.clang"
  },
  "schemaVersion": "3.4.16",
  "updatedAt": "2024-10-09T14:41:51.366Z",
  "networkType": "ethereum",
  "devdoc": {
    "kind": "dev",
    "methods": {},
    "version": 1
  },
  "userdoc": {
    "kind": "user",
    "methods": {},
    "version": 1
  }
}